{
  "_format": "hh-sol-artifact-1",
  "contractName": "ResourcePortal",
  "sourceName": "contracts/ResourcePortal.sol",
  "abi": [
    {
      "inputs": [],
      "stateMutability": "payable",
      "type": "constructor"
    },
    {
      "anonymous": false,
      "inputs": [
        {
          "indexed": true,
          "internalType": "address",
          "name": "from",
          "type": "address"
        },
        {
          "indexed": false,
          "internalType": "uint256",
          "name": "timestamp",
          "type": "uint256"
        },
        {
          "indexed": false,
          "internalType": "string",
          "name": "message",
          "type": "string"
        }
      ],
      "name": "NewResource",
      "type": "event"
    },
    {
      "inputs": [],
      "name": "getAllResources",
      "outputs": [
        {
          "components": [
            {
              "internalType": "address",
              "name": "resourcer",
              "type": "address"
            },
            {
              "internalType": "string",
              "name": "message",
              "type": "string"
            },
            {
              "internalType": "uint256",
              "name": "timestamp",
              "type": "uint256"
            }
          ],
          "internalType": "struct ResourcePortal.Resource[]",
          "name": "",
          "type": "tuple[]"
        }
      ],
      "stateMutability": "view",
      "type": "function"
    },
    {
      "inputs": [],
      "name": "getTotalResources",
      "outputs": [
        {
          "internalType": "uint256",
          "name": "",
          "type": "uint256"
        }
      ],
      "stateMutability": "view",
      "type": "function"
    },
    {
      "inputs": [
        {
          "internalType": "address",
          "name": "",
          "type": "address"
        }
      ],
      "name": "lastWavedAt",
      "outputs": [
        {
          "internalType": "uint256",
          "name": "",
          "type": "uint256"
        }
      ],
      "stateMutability": "view",
      "type": "function"
    },
    {
      "inputs": [
        {
          "internalType": "string",
          "name": "_message",
          "type": "string"
        }
      ],
      "name": "resource",
      "outputs": [],
      "stateMutability": "nonpayable",
      "type": "function"
    }
  ],
  "bytecode": "0x60806040526200004f6040518060400160405280601c81526020017f596f20796f2c204920616d206120736d61727420636f6e7472616374000000008152506200007760201b620005e81760201c565b606444426200005f9190620001c4565b6200006b919062000261565b60018190555062000308565b62000117816040516024016200008e919062000184565b6040516020818303038152906040527f41304fac000000000000000000000000000000000000000000000000000000007bffffffffffffffffffffffffffffffffffffffffffffffffffffffff19166020820180517bffffffffffffffffffffffffffffffffffffffffffffffffffffffff83818316178352505050506200011a60201b60201c565b50565b60008151905060006a636f6e736f6c652e6c6f679050602083016000808483855afa5050505050565b60006200015082620001a8565b6200015c8185620001b3565b93506200016e8185602086016200022b565b6200017981620002f7565b840191505092915050565b60006020820190508181036000830152620001a0818462000143565b905092915050565b600081519050919050565b600082825260208201905092915050565b6000620001d18262000221565b9150620001de8362000221565b9250827fffffffffffffffffffffffffffffffffffffffffffffffffffffffffffffffff0382111562000216576200021562000299565b5b828201905092915050565b6000819050919050565b60005b838110156200024b5780820151818401526020810190506200022e565b838111156200025b576000848401525b50505050565b60006200026e8262000221565b91506200027b8362000221565b9250826200028e576200028d620002c8565b5b828206905092915050565b7f4e487b7100000000000000000000000000000000000000000000000000000000600052601160045260246000fd5b7f4e487b7100000000000000000000000000000000000000000000000000000000600052601260045260246000fd5b6000601f19601f8301169050919050565b6110dc80620003186000396000f3fe608060405234801561001057600080fd5b506004361061004c5760003560e01c8063a42a466314610051578063baace33e14610081578063c3f8a1941461009f578063c9c0b5de146100bd575b600080fd5b61006b60048036038101906100669190610905565b6100d9565b6040516100789190610d4a565b60405180910390f35b6100896100f1565b6040516100969190610c31565b60405180910390f35b6100a7610242565b6040516100b49190610d4a565b60405180910390f35b6100d760048036038101906100d2919061092e565b61024b565b005b60036020528060005260406000206000915090505481565b60606002805480602002602001604051908101604052809291908181526020016000905b8282101561023957838290600052602060002090600302016040518060600160405290816000820160009054906101000a900473ffffffffffffffffffffffffffffffffffffffff1673ffffffffffffffffffffffffffffffffffffffff1673ffffffffffffffffffffffffffffffffffffffff16815260200160018201805461019e90610f3b565b80601f01602080910402602001604051908101604052809291908181526020018280546101ca90610f3b565b80156102175780601f106101ec57610100808354040283529160200191610217565b820191906000526020600020905b8154815290600101906020018083116101fa57829003601f168201915b5050505050815260200160028201548152505081526020019060010190610115565b50505050905090565b60008054905090565b42600f600360003373ffffffffffffffffffffffffffffffffffffffff1673ffffffffffffffffffffffffffffffffffffffff168152602001908152602001600020546102989190610e67565b106102d8576040517f08c379a00000000000000000000000000000000000000000000000000000000081526004016102cf90610d2a565b60405180910390fd5b42600360003373ffffffffffffffffffffffffffffffffffffffff1673ffffffffffffffffffffffffffffffffffffffff16815260200190815260200160002081905550600160008082825461032e9190610e67565b92505081905550610358604051806060016040528060248152602001611083602491393383610681565b600260405180606001604052803373ffffffffffffffffffffffffffffffffffffffff16815260200183815260200142815250908060018154018082558091505060019003906000526020600020906003020160009091909190915060008201518160000160006101000a81548173ffffffffffffffffffffffffffffffffffffffff021916908373ffffffffffffffffffffffffffffffffffffffff16021790555060208201518160010190805190602001906104179291906107e5565b50604082015181600201555050606460015442446104359190610e67565b61043f9190610e67565b6104499190610f6d565b600181905550600560015411610595576104986040518060400160405280600781526020017f257320776f6e210000000000000000000000000000000000000000000000000081525033610720565b6000655af3107a40009050478111156104e6576040517f08c379a00000000000000000000000000000000000000000000000000000000081526004016104dd90610cea565b60405180910390fd5b60003373ffffffffffffffffffffffffffffffffffffffff168260405161050c90610c1c565b60006040518083038185875af1925050503d8060008114610549576040519150601f19603f3d011682016040523d82523d6000602084013e61054e565b606091505b5050905080610592576040517f08c379a000000000000000000000000000000000000000000000000000000000815260040161058990610d0a565b60405180910390fd5b50505b3373ffffffffffffffffffffffffffffffffffffffff167f1c15109b4e0bd62abadb33bfd785056bdb93a0530b0330f648a9a2ce3eeba5e242836040516105dd929190610d65565b60405180910390a250565b61067e816040516024016105fc9190610c53565b6040516020818303038152906040527f41304fac000000000000000000000000000000000000000000000000000000007bffffffffffffffffffffffffffffffffffffffffffffffffffffffff19166020820180517bffffffffffffffffffffffffffffffffffffffffffffffffffffffff83818316178352505050506107bc565b50565b61071b83838360405160240161069993929190610ca5565b6040516020818303038152906040527fe0e9ad4f000000000000000000000000000000000000000000000000000000007bffffffffffffffffffffffffffffffffffffffffffffffffffffffff19166020820180517bffffffffffffffffffffffffffffffffffffffffffffffffffffffff83818316178352505050506107bc565b505050565b6107b88282604051602401610736929190610c75565b6040516020818303038152906040527f319af333000000000000000000000000000000000000000000000000000000007bffffffffffffffffffffffffffffffffffffffffffffffffffffffff19166020820180517bffffffffffffffffffffffffffffffffffffffffffffffffffffffff83818316178352505050506107bc565b5050565b60008151905060006a636f6e736f6c652e6c6f679050602083016000808483855afa5050505050565b8280546107f190610f3b565b90600052602060002090601f016020900481019282610813576000855561085a565b82601f1061082c57805160ff191683800117855561085a565b8280016001018555821561085a579182015b8281111561085957825182559160200191906001019061083e565b5b509050610867919061086b565b5090565b5b8082111561088457600081600090555060010161086c565b5090565b600061089b61089684610dc6565b610d95565b9050828152602081018484840111156108b357600080fd5b6108be848285610ef9565b509392505050565b6000813590506108d58161106b565b92915050565b600082601f8301126108ec57600080fd5b81356108fc848260208601610888565b91505092915050565b60006020828403121561091757600080fd5b6000610925848285016108c6565b91505092915050565b60006020828403121561094057600080fd5b600082013567ffffffffffffffff81111561095a57600080fd5b610966848285016108db565b91505092915050565b600061097b8383610bae565b905092915050565b61098c81610ebd565b82525050565b61099b81610ebd565b82525050565b60006109ac82610e06565b6109b68185610e29565b9350836020820285016109c885610df6565b8060005b85811015610a0457848403895281516109e5858261096f565b94506109f083610e1c565b925060208a019950506001810190506109cc565b50829750879550505050505092915050565b6000610a2182610e11565b610a2b8185610e45565b9350610a3b818560208601610f08565b610a448161105a565b840191505092915050565b6000610a5a82610e11565b610a648185610e56565b9350610a74818560208601610f08565b610a7d8161105a565b840191505092915050565b6000610a95603483610e56565b91507f547279696e6720746f207769746864726177206d6f7265206d6f6e657920746860008301527f616e2074686520636f6e7472616374206861732e0000000000000000000000006020830152604082019050919050565b6000610afb602783610e56565b91507f4661696c656420746f207769746864726177206d6f6e65792066726f6d20636f60008301527f6e74726163742e000000000000000000000000000000000000000000000000006020830152604082019050919050565b6000610b61600083610e3a565b9150600082019050919050565b6000610b7b600883610e56565b91507f576169742031356d0000000000000000000000000000000000000000000000006000830152602082019050919050565b6000606083016000830151610bc66000860182610983565b5060208301518482036020860152610bde8282610a16565b9150506040830151610bf36040860182610bfe565b508091505092915050565b610c0781610eef565b82525050565b610c1681610eef565b82525050565b6000610c2782610b54565b9150819050919050565b60006020820190508181036000830152610c4b81846109a1565b905092915050565b60006020820190508181036000830152610c6d8184610a4f565b905092915050565b60006040820190508181036000830152610c8f8185610a4f565b9050610c9e6020830184610992565b9392505050565b60006060820190508181036000830152610cbf8186610a4f565b9050610cce6020830185610992565b8181036040830152610ce08184610a4f565b9050949350505050565b60006020820190508181036000830152610d0381610a88565b9050919050565b60006020820190508181036000830152610d2381610aee565b9050919050565b60006020820190508181036000830152610d4381610b6e565b9050919050565b6000602082019050610d5f6000830184610c0d565b92915050565b6000604082019050610d7a6000830185610c0d565b8181036020830152610d8c8184610a4f565b90509392505050565b6000604051905081810181811067ffffffffffffffff82111715610dbc57610dbb61102b565b5b8060405250919050565b600067ffffffffffffffff821115610de157610de061102b565b5b601f19601f8301169050602081019050919050565b6000819050602082019050919050565b600081519050919050565b600081519050919050565b6000602082019050919050565b600082825260208201905092915050565b600081905092915050565b600082825260208201905092915050565b600082825260208201905092915050565b6000610e7282610eef565b9150610e7d83610eef565b9250827fffffffffffffffffffffffffffffffffffffffffffffffffffffffffffffffff03821115610eb257610eb1610f9e565b5b828201905092915050565b6000610ec882610ecf565b9050919050565b600073ffffffffffffffffffffffffffffffffffffffff82169050919050565b6000819050919050565b82818337600083830152505050565b60005b83811015610f26578082015181840152602081019050610f0b565b83811115610f35576000848401525b50505050565b60006002820490506001821680610f5357607f821691505b60208210811415610f6757610f66610ffc565b5b50919050565b6000610f7882610eef565b9150610f8383610eef565b925082610f9357610f92610fcd565b5b828206905092915050565b7f4e487b7100000000000000000000000000000000000000000000000000000000600052601160045260246000fd5b7f4e487b7100000000000000000000000000000000000000000000000000000000600052601260045260246000fd5b7f4e487b7100000000000000000000000000000000000000000000000000000000600052602260045260246000fd5b7f4e487b7100000000000000000000000000000000000000000000000000000000600052604160045260246000fd5b6000601f19601f8301169050919050565b61107481610ebd565b811461107f57600080fd5b5056fe2573206861732073656e742061207265736f7572636520772f206d657373616765202573a2646970667358221220aa8e9d8c2859c4cf8fb073fd5068e1c2c41e2550ff5825a85972eb97f2effd7564736f6c63430008000033",
  "linkReferences": {},
  "deployedLinkReferences": {}
}